{
  "_format": "hh-sol-artifact-1",
  "contractName": "MyPolls",
  "sourceName": "contracts/MyPolls.sol",
  "abi": [
    {
      "inputs": [],
      "stateMutability": "nonpayable",
      "type": "constructor"
    },
    {
      "anonymous": false,
      "inputs": [
        {
          "indexed": false,
          "internalType": "uint256",
          "name": "count",
          "type": "uint256"
        },
        {
          "indexed": false,
          "internalType": "string",
          "name": "name",
          "type": "string"
        }
      ],
      "name": "CandidateAdded",
      "type": "event"
    },
    {
      "anonymous": false,
      "inputs": [
        {
          "indexed": false,
          "internalType": "uint256",
          "name": "count",
          "type": "uint256"
        },
        {
          "indexed": false,
          "internalType": "string",
          "name": "name",
          "type": "string"
        }
      ],
      "name": "NewVotAdded",
      "type": "event"
    },
    {
      "anonymous": false,
      "inputs": [
        {
          "indexed": true,
          "internalType": "address",
          "name": "previousOwner",
          "type": "address"
        },
        {
          "indexed": true,
          "internalType": "address",
          "name": "newOwner",
          "type": "address"
        }
      ],
      "name": "OwnershipTransferred",
      "type": "event"
    },
    {
      "anonymous": false,
      "inputs": [
        {
          "indexed": false,
          "internalType": "address",
          "name": "account",
          "type": "address"
        }
      ],
      "name": "Paused",
      "type": "event"
    },
    {
      "anonymous": false,
      "inputs": [
        {
          "indexed": false,
          "internalType": "address",
          "name": "account",
          "type": "address"
        }
      ],
      "name": "Unpaused",
      "type": "event"
    },
    {
      "inputs": [
        {
          "internalType": "address",
          "name": "candAdress",
          "type": "address"
        },
        {
          "internalType": "string",
          "name": "name",
          "type": "string"
        }
      ],
      "name": "addCandidate",
      "outputs": [],
      "stateMutability": "nonpayable",
      "type": "function"
    },
    {
      "inputs": [
        {
          "internalType": "address",
          "name": "_candAddress",
          "type": "address"
        }
      ],
      "name": "candidateExists",
      "outputs": [
        {
          "internalType": "bool",
          "name": "",
          "type": "bool"
        }
      ],
      "stateMutability": "view",
      "type": "function"
    },
    {
      "inputs": [
        {
          "internalType": "address",
          "name": "",
          "type": "address"
        }
      ],
      "name": "candidates",
      "outputs": [
        {
          "internalType": "string",
          "name": "_name",
          "type": "string"
        },
        {
          "internalType": "uint256",
          "name": "_votesGot",
          "type": "uint256"
        }
      ],
      "stateMutability": "view",
      "type": "function"
    },
    {
      "inputs": [],
      "name": "getCandidatesCount",
      "outputs": [
        {
          "internalType": "uint256",
          "name": "",
          "type": "uint256"
        }
      ],
      "stateMutability": "view",
      "type": "function"
    },
    {
      "inputs": [],
      "name": "getVotCount",
      "outputs": [
        {
          "internalType": "uint256",
          "name": "",
          "type": "uint256"
        }
      ],
      "stateMutability": "view",
      "type": "function"
    },
    {
      "inputs": [
        {
          "internalType": "address",
          "name": "_votterAddress",
          "type": "address"
        }
      ],
      "name": "notVottedBefore",
      "outputs": [
        {
          "internalType": "bool",
          "name": "",
          "type": "bool"
        }
      ],
      "stateMutability": "view",
      "type": "function"
    },
    {
      "inputs": [],
      "name": "owner",
      "outputs": [
        {
          "internalType": "address",
          "name": "",
          "type": "address"
        }
      ],
      "stateMutability": "view",
      "type": "function"
    },
    {
      "inputs": [],
      "name": "pause",
      "outputs": [],
      "stateMutability": "nonpayable",
      "type": "function"
    },
    {
      "inputs": [],
      "name": "paused",
      "outputs": [
        {
          "internalType": "bool",
          "name": "",
          "type": "bool"
        }
      ],
      "stateMutability": "view",
      "type": "function"
    },
    {
      "inputs": [],
      "name": "renounceOwnership",
      "outputs": [],
      "stateMutability": "nonpayable",
      "type": "function"
    },
    {
      "inputs": [
        {
          "internalType": "address",
          "name": "newOwner",
          "type": "address"
        }
      ],
      "name": "transferOwnership",
      "outputs": [],
      "stateMutability": "nonpayable",
      "type": "function"
    },
    {
      "inputs": [],
      "name": "unpause",
      "outputs": [],
      "stateMutability": "nonpayable",
      "type": "function"
    },
    {
      "inputs": [
        {
          "internalType": "address",
          "name": "_candAddress",
          "type": "address"
        }
      ],
      "name": "vote",
      "outputs": [],
      "stateMutability": "nonpayable",
      "type": "function"
    }
  ],
  "bytecode": "0x60806040523480156200001157600080fd5b5060008060006101000a81548160ff0219169083151502179055506200004c620000406200007d60201b60201c565b6200008560201b60201c565b60008060156101000a81548160ff021916908360ff160217905550620000776200014a60201b60201c565b6200045c565b600033905090565b60008060019054906101000a900473ffffffffffffffffffffffffffffffffffffffff16905081600060016101000a81548173ffffffffffffffffffffffffffffffffffffffff021916908373ffffffffffffffffffffffffffffffffffffffff1602179055508173ffffffffffffffffffffffffffffffffffffffff168173ffffffffffffffffffffffffffffffffffffffff167f8be0079c531659141344cd1fd0a4f28419497f9722a3daafe3b4186f6b6457e060405160405180910390a35050565b6200015a6200016c60201b60201c565b6200016a620001fd60201b60201c565b565b6200017c6200007d60201b60201c565b73ffffffffffffffffffffffffffffffffffffffff16620001a26200027160201b60201c565b73ffffffffffffffffffffffffffffffffffffffff1614620001fb576040517f08c379a0000000000000000000000000000000000000000000000000000000008152600401620001f29062000366565b60405180910390fd5b565b6200020d6200029a60201b60201c565b60016000806101000a81548160ff0219169083151502179055507f62e78cea01bee320cd4e420270b5ea74000d11b0c9f74754ebdbfc544b05a258620002586200007d60201b60201c565b604051620002679190620003cd565b60405180910390a1565b60008060019054906101000a900473ffffffffffffffffffffffffffffffffffffffff16905090565b620002aa620002ef60201b60201c565b15620002ed576040517f08c379a0000000000000000000000000000000000000000000000000000000008152600401620002e4906200043a565b60405180910390fd5b565b60008060009054906101000a900460ff16905090565b600082825260208201905092915050565b7f4f776e61626c653a2063616c6c6572206973206e6f7420746865206f776e6572600082015250565b60006200034e60208362000305565b91506200035b8262000316565b602082019050919050565b6000602082019050818103600083015262000381816200033f565b9050919050565b600073ffffffffffffffffffffffffffffffffffffffff82169050919050565b6000620003b58262000388565b9050919050565b620003c781620003a8565b82525050565b6000602082019050620003e46000830184620003bc565b92915050565b7f5061757361626c653a2070617573656400000000000000000000000000000000600082015250565b60006200042260108362000305565b91506200042f82620003ea565b602082019050919050565b60006020820190508181036000830152620004558162000413565b9050919050565b6116a9806200046c6000396000f3fe608060405234801561001057600080fd5b50600436106100cf5760003560e01c8063715018a61161008c5780638da5cb5b116100665780638da5cb5b146101db5780639a594f06146101f9578063bb9aa28f14610215578063f2fde38b14610233576100cf565b8063715018a6146101965780638456cb59146101a05780638ab66a90146101aa576100cf565b80633f4ba83a146100d45780634880713b146100de57806350e014371461010e57806351c038811461013e5780635c975abb1461015c5780636dd7d8ea1461017a575b600080fd5b6100dc61024f565b005b6100f860048036038101906100f39190610e39565b610261565b6040516101059190610e81565b60405180910390f35b61012860048036038101906101239190610e39565b610310565b6040516101359190610e81565b60405180910390f35b6101466103bf565b6040516101539190610eb5565b60405180910390f35b6101646103d8565b6040516101719190610e81565b60405180910390f35b610194600480360381019061018f9190610e39565b6103ee565b005b61019e6105fb565b005b6101a861060f565b005b6101c460048036038101906101bf9190610e39565b610621565b6040516101d2929190610f69565b60405180910390f35b6101e36106cd565b6040516101f09190610fa8565b60405180910390f35b610213600480360381019061020e91906110f8565b6106f6565b005b61021d61088d565b60405161022a9190610eb5565b60405180910390f35b61024d60048036038101906102489190610e39565b61089a565b005b61025761091e565b61025f61099c565b565b600080600090505b600180549050811015610305578273ffffffffffffffffffffffffffffffffffffffff16600182815481106102a1576102a0611154565b5b9060005260206000200160009054906101000a900473ffffffffffffffffffffffffffffffffffffffff1673ffffffffffffffffffffffffffffffffffffffff1614156102f257600091505061030b565b80806102fd906111b2565b915050610269565b50600190505b919050565b600080600090505b6002805490508110156103b4578273ffffffffffffffffffffffffffffffffffffffff16600282815481106103505761034f611154565b5b9060005260206000200160009054906101000a900473ffffffffffffffffffffffffffffffffffffffff1673ffffffffffffffffffffffffffffffffffffffff1614156103a15760019150506103ba565b80806103ac906111b2565b915050610318565b50600090505b919050565b60008060159054906101000a900460ff1660ff16905090565b60008060009054906101000a900460ff16905090565b6103f66103d8565b15610436576040517f08c379a000000000000000000000000000000000000000000000000000000000815260040161042d90611247565b60405180910390fd5b61043f81610310565b61047e576040517f08c379a0000000000000000000000000000000000000000000000000000000008152600401610475906112b3565b60405180910390fd5b61048733610261565b6104c6576040517f08c379a00000000000000000000000000000000000000000000000000000000081526004016104bd9061131f565b60405180910390fd5b600360008273ffffffffffffffffffffffffffffffffffffffff1673ffffffffffffffffffffffffffffffffffffffff1681526020019081526020016000206001016000815480929190610519906111b2565b91905055506000601581819054906101000a900460ff168092919061053d9061134c565b91906101000a81548160ff021916908360ff160217905550506001339080600181540180825580915050600190039060005260206000200160009091909190916101000a81548173ffffffffffffffffffffffffffffffffffffffff021916908373ffffffffffffffffffffffffffffffffffffffff1602179055506105f86040518060400160405280601481526020017f566f747465722025732068617320766f74746564000000000000000000000000815250336109fe565b50565b61060361091e565b61060d6000610a9a565b565b61061761091e565b61061f610b5f565b565b6003602052806000526040600020600091509050806000018054610644906113a5565b80601f0160208091040260200160405190810160405280929190818152602001828054610670906113a5565b80156106bd5780601f10610692576101008083540402835291602001916106bd565b820191906000526020600020905b8154815290600101906020018083116106a057829003601f168201915b5050505050908060010154905082565b60008060019054906101000a900473ffffffffffffffffffffffffffffffffffffffff16905090565b6106fe61091e565b6107066103d8565b15610746576040517f08c379a000000000000000000000000000000000000000000000000000000000815260040161073d90611247565b60405180910390fd5b6002829080600181540180825580915050600190039060005260206000200160009091909190916101000a81548173ffffffffffffffffffffffffffffffffffffffff021916908373ffffffffffffffffffffffffffffffffffffffff16021790555060405180604001604052808281526020016000815250600360008473ffffffffffffffffffffffffffffffffffffffff1673ffffffffffffffffffffffffffffffffffffffff168152602001908152602001600020600082015181600001908051906020019061081a929190610d24565b506020820151816001015590505061084b604051806060016040528060218152602001611653602191398284610bc1565b7fe83b2a43e7e82d975c8a0a6d2f045153c869e111136a34d1889ab7b598e396a3600280549050826040516108819291906113d7565b60405180910390a15050565b6000600280549050905090565b6108a261091e565b600073ffffffffffffffffffffffffffffffffffffffff168173ffffffffffffffffffffffffffffffffffffffff161415610912576040517f08c379a000000000000000000000000000000000000000000000000000000000815260040161090990611479565b60405180910390fd5b61091b81610a9a565b50565b610926610c60565b73ffffffffffffffffffffffffffffffffffffffff166109446106cd565b73ffffffffffffffffffffffffffffffffffffffff161461099a576040517f08c379a0000000000000000000000000000000000000000000000000000000008152600401610991906114e5565b60405180910390fd5b565b6109a4610c68565b60008060006101000a81548160ff0219169083151502179055507f5db9ee0a495bf2e6ff9c91a7834c1ba4fdd244a5e8aa4e537bd38aeae4b073aa6109e7610c60565b6040516109f49190610fa8565b60405180910390a1565b610a968282604051602401610a14929190611505565b6040516020818303038152906040527f319af333000000000000000000000000000000000000000000000000000000007bffffffffffffffffffffffffffffffffffffffffffffffffffffffff19166020820180517bffffffffffffffffffffffffffffffffffffffffffffffffffffffff8381831617835250505050610cb1565b5050565b60008060019054906101000a900473ffffffffffffffffffffffffffffffffffffffff16905081600060016101000a81548173ffffffffffffffffffffffffffffffffffffffff021916908373ffffffffffffffffffffffffffffffffffffffff1602179055508173ffffffffffffffffffffffffffffffffffffffff168173ffffffffffffffffffffffffffffffffffffffff167f8be0079c531659141344cd1fd0a4f28419497f9722a3daafe3b4186f6b6457e060405160405180910390a35050565b610b67610cda565b60016000806101000a81548160ff0219169083151502179055507f62e78cea01bee320cd4e420270b5ea74000d11b0c9f74754ebdbfc544b05a258610baa610c60565b604051610bb79190610fa8565b60405180910390a1565b610c5b838383604051602401610bd993929190611535565b6040516020818303038152906040527f95ed0195000000000000000000000000000000000000000000000000000000007bffffffffffffffffffffffffffffffffffffffffffffffffffffffff19166020820180517bffffffffffffffffffffffffffffffffffffffffffffffffffffffff8381831617835250505050610cb1565b505050565b600033905090565b610c706103d8565b610caf576040517f08c379a0000000000000000000000000000000000000000000000000000000008152600401610ca6906115c6565b60405180910390fd5b565b60008151905060006a636f6e736f6c652e6c6f679050602083016000808483855afa5050505050565b610ce26103d8565b15610d22576040517f08c379a0000000000000000000000000000000000000000000000000000000008152600401610d1990611632565b60405180910390fd5b565b828054610d30906113a5565b90600052602060002090601f016020900481019282610d525760008555610d99565b82601f10610d6b57805160ff1916838001178555610d99565b82800160010185558215610d99579182015b82811115610d98578251825591602001919060010190610d7d565b5b509050610da69190610daa565b5090565b5b80821115610dc3576000816000905550600101610dab565b5090565b6000604051905090565b600080fd5b600080fd5b600073ffffffffffffffffffffffffffffffffffffffff82169050919050565b6000610e0682610ddb565b9050919050565b610e1681610dfb565b8114610e2157600080fd5b50565b600081359050610e3381610e0d565b92915050565b600060208284031215610e4f57610e4e610dd1565b5b6000610e5d84828501610e24565b91505092915050565b60008115159050919050565b610e7b81610e66565b82525050565b6000602082019050610e966000830184610e72565b92915050565b6000819050919050565b610eaf81610e9c565b82525050565b6000602082019050610eca6000830184610ea6565b92915050565b600081519050919050565b600082825260208201905092915050565b60005b83811015610f0a578082015181840152602081019050610eef565b83811115610f19576000848401525b50505050565b6000601f19601f8301169050919050565b6000610f3b82610ed0565b610f458185610edb565b9350610f55818560208601610eec565b610f5e81610f1f565b840191505092915050565b60006040820190508181036000830152610f838185610f30565b9050610f926020830184610ea6565b9392505050565b610fa281610dfb565b82525050565b6000602082019050610fbd6000830184610f99565b92915050565b600080fd5b600080fd5b7f4e487b7100000000000000000000000000000000000000000000000000000000600052604160045260246000fd5b61100582610f1f565b810181811067ffffffffffffffff8211171561102457611023610fcd565b5b80604052505050565b6000611037610dc7565b90506110438282610ffc565b919050565b600067ffffffffffffffff82111561106357611062610fcd565b5b61106c82610f1f565b9050602081019050919050565b82818337600083830152505050565b600061109b61109684611048565b61102d565b9050828152602081018484840111156110b7576110b6610fc8565b5b6110c2848285611079565b509392505050565b600082601f8301126110df576110de610fc3565b5b81356110ef848260208601611088565b91505092915050565b6000806040838503121561110f5761110e610dd1565b5b600061111d85828601610e24565b925050602083013567ffffffffffffffff81111561113e5761113d610dd6565b5b61114a858286016110ca565b9150509250929050565b7f4e487b7100000000000000000000000000000000000000000000000000000000600052603260045260246000fd5b7f4e487b7100000000000000000000000000000000000000000000000000000000600052601160045260246000fd5b60006111bd82610e9c565b91507fffffffffffffffffffffffffffffffffffffffffffffffffffffffffffffffff8214156111f0576111ef611183565b5b600182019050919050565b7f436f6e7472616374206973207061757365640000000000000000000000000000600082015250565b6000611231601283610edb565b915061123c826111fb565b602082019050919050565b6000602082019050818103600083015261126081611224565b9050919050565b7f556e6b6e6f776e2063616e646964617465000000000000000000000000000000600082015250565b600061129d601183610edb565b91506112a882611267565b602082019050919050565b600060208201905081810360008301526112cc81611290565b9050919050565b7f766f7474657220616c726561647920766f747465640000000000000000000000600082015250565b6000611309601583610edb565b9150611314826112d3565b602082019050919050565b60006020820190508181036000830152611338816112fc565b9050919050565b600060ff82169050919050565b60006113578261133f565b915060ff82141561136b5761136a611183565b5b600182019050919050565b7f4e487b7100000000000000000000000000000000000000000000000000000000600052602260045260246000fd5b600060028204905060018216806113bd57607f821691505b602082108114156113d1576113d0611376565b5b50919050565b60006040820190506113ec6000830185610ea6565b81810360208301526113fe8184610f30565b90509392505050565b7f4f776e61626c653a206e6577206f776e657220697320746865207a65726f206160008201527f6464726573730000000000000000000000000000000000000000000000000000602082015250565b6000611463602683610edb565b915061146e82611407565b604082019050919050565b6000602082019050818103600083015261149281611456565b9050919050565b7f4f776e61626c653a2063616c6c6572206973206e6f7420746865206f776e6572600082015250565b60006114cf602083610edb565b91506114da82611499565b602082019050919050565b600060208201905081810360008301526114fe816114c2565b9050919050565b6000604082019050818103600083015261151f8185610f30565b905061152e6020830184610f99565b9392505050565b6000606082019050818103600083015261154f8186610f30565b905081810360208301526115638185610f30565b90506115726040830184610f99565b949350505050565b7f5061757361626c653a206e6f7420706175736564000000000000000000000000600082015250565b60006115b0601483610edb565b91506115bb8261157a565b602082019050919050565b600060208201905081810360008301526115df816115a3565b9050919050565b7f5061757361626c653a2070617573656400000000000000000000000000000000600082015250565b600061161c601083610edb565b9150611627826115e6565b602082019050919050565b6000602082019050818103600083015261164b8161160f565b905091905056fe43616e64696461746520257320697320616464656420617420696e646578202573a26469706673582212200fbd70ebd39190903b59edd193c1a477e2ba791f1df9935fc8ced47fa0b6128664736f6c63430008090033",
  "linkReferences": {},
  "deployedLinkReferences": {}
}